:020000040000FA
:06000000F5EF12F0120002
:020006001200E6
:06000800B3EF10F012003E
:02000E000000F0
:020010000000EE
:060018007AEF10F0120067
:02001E000500DB
:10002000C2260000000F0000300000000E0000009B
:100030007B0F000004000000A12600005A0F000002
:100040002100000030260000800000007100000048
:0C00500006260000300F00002A0000000F
:04005C0052D84DEC3D
:1000600009F098D84DEC09F023EC11F00001EC51A7
:10007000ED1107E10ADB730E0001E65D02E16CECB5
:1000800006F048EC07F04BEC0CF0EED777EC09F0FB
:10009000DE6ADD6ABBEC09F0FD0EDBCF12F0FE0E6E
:1000A000DBCF13F011501318E8AE02D0133404D094
:1000B0001250105C135011581DE2020EDB6A030E41
:1000C000DB6A020EDBCF10F0030EDBCF11F0D8900D
:1000D000115004E6A00E105C000E115806E2020E4C
:1000E000DB2A030EEEE3DB2AECD7DF2A010ED2E394
:1000F000DB2AD0D7040EE15C02E2E16AE552DDEFD3
:1001000008F0936A816A956AD6EC0AF023EC0CF049
:1001100072EC10F0E80EE66E030EE66EB7DFE55205
:10012000E552570EE66E120EE66E37EC0EF0E55213
:10013000E552AE0EE66E240EE66E4DEC0EF0E55284
:10014000E552660EE66EB70EE66E7CEC0EF0E552FA
:10015000E5520A0EE66EE66AEBEC0EF0E552E55269
:100160000A0EE66EE66AF6EC0EF0E552E552320E45
:10017000E66EE66A0EEC0FF0E552E552320EE66EE0
:10018000E66A26EC0FF0E552E552320E1AEC09F061
:100190001FEF11F00001B66BB76B020E0101106F7B
:1001A000116BD80EE66E200EAEEC09F04BEC0CF0A5
:1001B000010E0001BC6FBD6B1200080E0001B7AF4D
:1001C00002D0D89003D0B65D000EB75904E3080EF4
:1001D000B66FB76B1200B73504E2B6510008000ED7
:1001E000B75502E3B66BB76B1200D0EC09F0C7EC61
:1001F00008F002E647EC09F009E2D4EC09F0EE6AF7
:10020000ED6ADF2A010EF3E3DB2AF1D7020EE15C8F
:1002100002E2E16AE552DDEF08F00DEC0AF0EFECE6
:1002200008F0010EEE1801E1ED5014E0EFEC08F0DB
:1002300021EC09F0140E105C000E11580DE3EFECE8
:1002400008F0EECF12F0136A010E1216121804E134
:10025000135002E1010E01D0000E59EF0AF0D0EC6C
:1002600009F0C7EC08F002E647EC09F01FE2D4EC15
:1002700009F0010EEE1801E1ED5010E012EC0AF069
:10028000010EEE1801E1ED5009E0C5EC08F00CECB0
:1002900009F0010EEE1805E1ED5003E1010EF36ED9
:1002A00006D0DF2A010EDDE3DB2ADBD7F36AA2ECFE
:1002B00009F002E2E16AE552DDEF08F0D0EC08F067
:1002C000070EDE6EDD6ABBEC09F00001B7511118B4
:1002D000E8AE02D0113404D01050B65D1150B759B9
:1002E0002DE232EC0AF0113402E28EEC09F01AE34E
:1002F00012EC0AF0EECF12F0EFCF13F0133404E259
:1003000012500008000E13540DE3D4EC09F0EECFA8
:1003100014F0EFCF15F015340CE214500008000E65
:10032000155407E2BBEC09F010C0F3FF11C0F4FF55
:1003300009D0DF06010EC7E2DB06C5D7B6C0F3FF62
:10034000B7C0F4FF020EE15C02E2E16AE552DDEFC4
:1003500008F0D0EC08F026EC09F07BEC09F011E194
:1003600012EC0AF021EC09F0113406E28EEC09F0EF
:1003700003E2010EF36E06D0DF06010EEEE2DB06AD
:10038000ECD7F36AA2EC09F002E2E16AE552DDEF94
:1003900008F0D0EC08F026EC09F07BEC09F011E154
:1003A000D4EC09F021EC09F0113406E28EEC09F0EE
:1003B00003E2010EF36E06D0DF06010EEEE2DB066D
:1003C000ECD7F36AA2EC09F002E2E16AE552DDEF54
:1003D00008F0D0EC09F0C7EC08F002E693EC09F065
:1003E00015E2C0EC08F00DE0BBEC09F0010E1026A0
:1003F000000E112210500001B61903E11150B71977
:1004000044E0DF2A010EE7E3DB2AE5D7040EDE6EC7
:10041000DD6AC7EC08F002E695EC09F011E2C0ECE9
:1004200008F009E0BBEC09F010500001B61903E137
:100430001150B7192AE0DF2A010EEBE3DB2AE9D7D6
:10044000080EDE6EDD6AC7EC08F002E697EC09F0F4
:1004500014E2C0EC08F00CE0BBEC09F01006000E52
:10046000115A10500001B61903E11150B7190DE0EF
:10047000DF2A010EE8E3DB2AE6D70D0EB8EC08F020
:1004800007E00001B651B71103E1010EF36E01D090
:10049000F36AA2EC09F002E2E16AE552DDEF08F04E
:1004A0000101020E101959E1115157E10001B65135
:1004B000B71103E00F013C051EE000DF07EC09F077
:1004C0000001B751F418E8AE02D0113404D0105036
:1004D000B65D1150B75903E20101106B0FD039DF3F
:1004E00015EC0AF002E1115006E053DF15EC0AF0BA
:1004F00009E1115007E1010E0101106F116B7FEC52
:1005000009F022D00001630EBE1901E1BF5105E0E0
:10051000640EBE191CE1BF511AE15BDF15EC0AF055
:1005200016E1115014E1CADEF3CF12F0F4CF13F04C
:100530000001B651F3180BE1B751131808E16D0E25
:10054000FDEC08F061EC0AF0E552E5521200030EF2
:10055000B8EC08F04DE06D0E24D0105111112EE1D1
:10056000EBEC09F00FE1ED500DE125EC0AF00AE1AA
:100570001150B71907E1B3EC09F06D0EFDEC08F06E
:10058000F5EF00F019EC0AF0010EEE1801E1ED5064
:1005900005E0C0EC09F007E1ED5005E1B3EC09F02E
:1005A000680EFDEF08F025EC0AF007E11150B719CD
:1005B0001FE1B3EC09F085EC09F01200010E1019EF
:1005C00017E1115115E1EBEC09F001E1ED5005E007
:1005D000C0EC09F007E1ED5005E1B3EC09F06A0E5B
:1005E000FDEF08F00001B651B71102E185EC09F00A
:1005F000120023EC0CF0CA0EE66E200EAEEC09F0F1
:100600000101105111110AE0010E101902E11151FE
:100610000EE0680E101906E1115104E1C70EE66EF6
:10062000200E0CD06A0E101906E1115104E1C20E21
:10063000E66E200E03D0BA0EE66E200EE66E080EB1
:10064000E66EE66AB1EC08F0AA0EE66E200EB7EC94
:1006500009F039EC09F011AE02D012681368D4EC3D
:1006600008F00A0EE66E010EE66EE8EF08F023ECE5
:100670000CF0950EE66E200EAEEF09F023EC0CF0B8
:10068000800EE66E200EAEEF09F00ADF9FDAE7DD9E
:1006900015EC0AF004E1115002E104EC0AF0020E3C
:1006A0000101101901E1115101E1E3D06D0E1019A2
:1006B00001E1115101E1A3D06A0E101901E11151BC
:1006C0005FE0680E101901E111511FE0010E1019D1
:1006D00001E111510DE0105101E1115101E0120051
:1006E0000F013B0510E10001B62B000EB72307D028
:1006F0000F013B0508E10001B607000EB75B7FEC78
:1007000009F0E552E552DDEF00F0030EB8EC08F019
:1007100002E0CBEC08F0070EB8EC08F008E0A6EC1D
:1007200009F005E1BD5103E1C80E1AEC09F00F0113
:100730003D0506E1A6EC09F003E1BD5101E179D0E8
:100740000F013D0501E095D00001BC51BD1101E054
:1007500090D019EC0AF0010EEE1806E1ED5004E11C
:1007600019EC0AF0EE6AED6AC0EC09F004E1ED5014
:1007700002E1F0EC09F032EC09F00101106B77D0E6
:10078000030EB8EC08F002E0CBEC08F0070EB8EC72
:1007900008F003E0C80E1AEC09F00F013D050FE167
:1007A000A6EC09F00CE1BD510AE1020E0101126F45
:1007B000136B0001BC6BBD6B61EC0AF01DD00F0127
:1007C0003D0557E10001BC51BD1153E1EBEC09F0CF
:1007D00004E1ED5002E136EC0AF0C0EC09F004E16E
:1007E000ED5002E1F0EC09F00101126B136B010E08
:1007F000106F116B3BEC0AF0E552E5521200030E4C
:10080000B8EC08F002E0CBEC08F0070EB8EC08F00A
:1008100008E0A6EC09F005E1BD5103E1C80E1AECB1
:1008200009F00F013D050FE1A6EC09F00CE1BD5107
:100830000AE1020E0101126F136BB3EC09F0000123
:10084000BC6BBD6B12000F013D0513E10001BC51F3
:10085000BD110FE1F0EC09F036EC0AF019EC0AF0EA
:10086000EE6AED6A32EC09F0020E0101106F116BB5
:10087000120012000C0EB8EC08F00DE00001650E3D
:10088000BE1901E1BF5104E0650EBE6FBF6B1200DF
:10089000630EBE6FBF6B12000E0EB8EC08F00DE0D9
:1008A0000001630EBE1906E1BF5104E1640EBE6F84
:1008B000BF6B1200630EBE6FBF6B1200D0EC09F06D
:1008C000C7EC08F002E693EC09F010E2C0EC08F087
:1008D00008E01CEC0AF0010EE926000EEA222CECDE
:1008E0000AF0DF2A010EECE3DB2AEAD7040EDE6E03
:1008F000DD6AC7EC08F002E695EC09F00CE2C0EC0A
:1009000008F004E0D4EC09F040EC09F0DF2A010E15
:10091000F0E3DB2AEED7080EDE6EDD6AC7EC08F0E6
:1009200002E697EC09F00FE2C0EC08F007E01CECDF
:100930000AF0E906000EEA5A2CEC0AF0DF2A010E52
:10094000EDE3DB2AEBD70D0EB8EC08F006E0010E64
:100950000001806F816B906F916B020EE15C02E28F
:10096000E16AE552DDEF08F0D0EC09F0C7EC08F0E1
:1009700002E693EC09F00FE2C0EC08F007E011EC9E
:1009800009F0010EB827000EB92305D0DF2A010EA9
:10099000EDE3DB2AEBD7040EDE6EDD6AC7EC08F070
:1009A00002E695EC09F00BE2C0EC08F003E011EC74
:1009B00009F005D0DF2A010EF1E3DB2AEFD7080E9C
:1009C000DE6EDD6AE4DB02E697EC09F00EE2D8DBCE
:1009D00007E011EC09F0010EB85F000EB95B05D01D
:1009E000DF2A010EEFE3DB2AEDD70D0EC1DB06E0B7
:1009F000660E0001BE6FBF6BB86BB96B020EE15C97
:100A000002E2E16AE552D9D3000EB2DB0EE06AECF5
:100A100009F00CEC09F0010EEE6EED6A0001A26F18
:100A2000A36B630EBE6FBF6B1200010EA1DB0DE066
:100A30006AEC09F002EC09F0010EEE6EED6A0001BD
:100A4000B46FB56B630EBE6FBF6B1200A9DB23ECF6
:100A50000CF0DE6ADD6A9BDB02E647EC09F012E28D
:100A600032EC0AF0126A136A11AE02D012681368EF
:100A70009BDBDFCFE6FFE66AABDBDF2A010EEBE3B1
:100A8000DB2AE9D77B0EE66E200EE66E090EE66ED7
:100A9000E66A67DB39EC09F011AE02D01268136820
:100AA000F5EC09F074DB02E647EC09F00EE212EC1B
:100AB0000AF0C7DB126A136A11AE02D0126813681B
:100AC000D7EC09F0EFE3DB2AEDD7C5EC09F00AE03B
:100AD000010E101902E111510EE0680E101906E125
:100AE000115104E1C70EE66E200E0CD06A0E1019EB
:100AF00006E1115104E1C20EE66E200E03D0720E23
:100B0000E66E200EFDEC09F002E2E16AE55255D3F3
:100B100047DB23EC0CF0650EE66E200EAEEC09F020
:100B2000A8DB11AE02D012681368F5EC09F02FDBD8
:100B300001E6ADDB0EE2D4EC09F083DB126A136A46
:100B400011AE02D012681368D7EC09F0F0E3DB2A8B
:100B5000EED7C5EC09F00AE0010E101902E11151BF
:100B60000EE0680E101906E1115104E1C70EE66EA1
:100B7000200E0CD06A0E101906E1115104E1C20ECC
:100B8000E66E200E03D0720EE66E200EFDEC09F02C
:100B900002E2E16AE55211D323EC0CF05D0EE66E41
:100BA000200EDCDBB8C010F0B9C011F0126A136A75
:100BB00011AE02D012681368F7DA080EE66EE66A24
:100BC00007DB4E0EE66E200EB7EF09F000016B0E4C
:100BD000C0193AE1C15138E1070EB61901E1B75128
:100BE00030E0060EB61901E1B75129E0050EB6193D
:100BF00001E1B75122E0040EB61901E1B7511BE043
:100C0000030EB61901E1B75114E0020EB61901E165
:100C1000B7510DE0010EB61901E1B75106E0B6512A
:100C200059E1B75157E1010E0DD0020E0BD0040E61
:100C300009D0080E07D0100E05D0200E03D0400EAC
:100C400001D0800E816E12000F01390543E1070EBD
:100C50000001B61901E1B75130E0060EB61901E105
:100C6000B75129E0050EB61901E1B75122E0040E93
:100C7000B61901E1B7511BE0030EB61901E1B751F6
:100C800014E0020EB61901E1B7510DE0010EB619DC
:100C900001E1B75106E0B65113E1B75111E1010E80
:100CA0000DD0020E0BD0040E09D0080E07D0100E86
:100CB00005D0200E03D0400E01D0800E816E01D0F1
:100CC000816AF40EE66E010EE66EF6EC0EF0E55269
:100CD000E5521200816A1200CDDDDEDD0101125104
:100CE000131102E16B0E0DD0010E121904E1135124
:100CF00002E16C0E06D0020E121906E1135104E156
:100D00006C0E0001C06FC16B650E0001BE1901E1E0
:100D1000BF5119E0640EBE1901E1BF5111E0660E2A
:100D2000BE1901E1BF5109E0630EBE1901E1BF51D7
:100D300001E0120019DE26EF05F066DECCEF05F0CB
:100D4000BDDD88EF05F001011251131102E1F9EF49
:100D500002F0010E121904E1135102E137EF03F022
:100D6000020E121903E1135102E188DC1200120095
:100D700017DB0DDA04E6100E105C000E115811E2BC
:100D8000FFD90AE059DBC20EE926000EEA22EFCFB6
:100D900018F1010EF36E06D0DF2A010EEAE3DB2A1A
:100DA000E8D7F36ACFDA02E2E16AE55206D20C0E26
:100DB000DFD903E0010EF36E01D0F36AF46A12008A
:100DC00096DA8DDADF6A050EDF5C36E288DA010E2C
:100DD000DB6A040EF36E010EDBCFF4FFF350F45C1C
:100DE0001DE2010EDB5062DA040DF3CF11F0F4CFF7
:100DF00012F0D20E1126000E1222010EDB50112429
:100E0000E96E000E1220EA6EEF50105C04E0020E54
:100E1000DB6A030EDB6A010EDB2ADBD7D950020F37
:100E2000E96EDACFEAFF010EEE1804E1ED5002E1BF
:100E3000DF2802D0DF2AC7D7106E040EE15C02E281
:100E4000E16AE55268D2E9DA030EE126010EF36E9B
:100E5000DB6E020EDB6ADF6A040EDF5C10E2DF503D
:100E600025DAEA6AE20FE96E000EEA22EF50105C22
:100E700004E0010EDB6A020EDB6ADF2AEDD7010E09
:100E8000DB50106E030EE15C02E2E16AE55243D2F0
:100E90000001E651720A01E151D10A0A01E13FD194
:100EA0000F0A01E113D1010A01E1E3D0030A01E1D4
:100EB000A4D0060A01E185D0070A72E0050A5EE0C7
:100EC000010A49E01F0A17E0010A01E0120023ECC1
:100ED0000CF03D0EE66E200E41DA69DF98D9F35032
:100EE000F41001E13DD10001E76BE86BE96BEA6BBF
:100EF0006F0EE66F41D02C0EE66E200E2FDA000149
:100F0000C8D9BFDA15E02A0EE66E200EE66EE7C0FD
:100F1000E6FFE4DA140E0001E725E96E010EE82190
:100F2000EA6E18C1EFFFE72B000EE823E96BEA6BCE
:100F3000040E0001E8AF02D0D89003D0E75D000EA8
:100F4000E85902E3700EE66FD890EA5101E6F1D954
:100F500001E206D1F1D0E96BEA6B75DF010803E12C
:100F60000001740E08D02CDF000903E00001710EAF
:100F700002D00001720EE66F23EF0CF08AD9190E31
:100F8000E66E200EA4DA01E6A0D902E36E0EE66F4B
:100F9000D5D901E1E5D00001E96BEA6B730EDED033
:100FA00078D9F70EE66E1F0E92DA01E68ED902E3CB
:100FB0006E0EE66FC3D901E1D3D00001E96BEA6B95
:100FC000ACD00101020E101905E1115103E100013D
:100FD00060D903D00001E96BEA6B010EEC1906E160
:100FE000ED5104E1780EE66FE96BEA6BD890EA51B7
:100FF00001E66BD901E2B4D09FD04BD9E60EE66E84
:101000001F0EACD9D50EE66E1F0EB1D93ADA03E049
:101010000001E96BEA6B000EABD808E00001770E27
:10102000E66FE96BEA6B23EC0CF01DD0010EA0D843
:1010300010E00001760EE66F23EC0CF00001E96B86
:10104000EA6BE76BE86BEB2BEB5103080CE2EB6B05
:101050000AD0020E8DD807E00001E96BEA6BE76B5E
:10106000E86B730EE66F76D901E62FD901E278D0EE
:1010700063D00FD9C40EE66E1F0E70D90001E75180
:10108000E81118E19DD9EF50E66EE66A010E97D897
:10109000010E15D9010EE66E92D8020E10D9020E7D
:1010A000E66E010E8CD8030E0AD9030EE66E010E11
:1010B000EDD903D0010EE76FE86B4CD901E639D9C1
:1010C0004FE3750EE66FE76BE86B1200E2D8EC5168
:1010D000ED1104E1B30EE66E1F0E03D0A20EE66E14
:1010E0001F0E3CD9910EE66E1F0E41D927D90BE099
:1010F0000001EC51ED1103E1010EEC6F01D0EC6B3E
:10110000ED6B750EE66FFA0E0001EAAF02D0D890D3
:1011100003D0E95D000EEA5923E3750E1FD0B9D85C
:10112000800EE66E1F0E1AD96F0EE66E1F0E1FD9C7
:1011300011D901E6FED814E36E0E10D0AAD85E0EC7
:10114000E66E1F0E0BD9FA0E0001EAAF02D0D8905E
:1011500003D0E95D000EEA5903E36E0EE66F12005C
:101160001200DBEC0CF0E552E552E552E5521200BC
:10117000E66EE66A92D1B6C0E9FFB7C0EAFF9DD13C
:10118000DECFE6FFDDCFE6FF88D156D996D1F3D882
:10119000D89011501200E7D837D9010E010183D140
:1011A0003CD9020EE126120010C0E6FF11C0E6FF96
:1011B00012C0E6FF13C0E6FF1200E16E7AD166D9D5
:1011C0000001E0EF09F0800EE926000EEA2212008D
:1011D0008AEC0CF0146E060EE15E14501200FD0E47
:1011E000DBCFE9FFFE0EDBCFEAFFD890E936EA3627
:1011F000000EE9260F0EEA2212000101106F116B9A
:10120000010E51D1A40EE926000EEA221200F3CFFE
:1012100010F0F4CF11F01200920EE926000EEA222F
:101220001200660E0001BE6FBF6BDECFB8F0DDCFDF
:10123000B9F01200E66EE66A3EEC0FF0E552E552B8
:101240001200EECF10F0EFCF11F01200B6C010F088
:10125000B7C011F01006000E115A10C0DEFF11C009
:10126000DDFF12000101126B136B05D9E552E55247
:101270001200B6C010F0B7C011F0126A136A120063
:10128000010EEE6EED6A0001906F916B1200080E78
:10129000D8D0E92B000EEA231200F40EE66E010E00
:1012A000E66E46EC00F0E552E5521200EA6A140FD1
:1012B000E96E010EEA22EFCF10F0DF501200E926AE
:1012C000000EEA22EF50E66E1200E80EE95D030E12
:1012D000EA591200B8C0E9FFB9C0EAFFEED0010E2A
:1012E000F36E020EF3CFDBFF030EDB6A120095D81C
:1012F000040EE12612003FD8800E11141200D00E09
:10130000E66E070EE66E0EEF0FF0020E0101106F93
:10131000116BF5EF00F0E16E1050CBD010500008CB
:10132000000E11541200030E8CD0070E8AD0090E45
:1013300088D0F40EE95D010EEA59120038DDF35051
:10134000F4101200F46A020EE15C12000001010EBA
:10135000BC1912000001D890EA511200E66EE66A4C
:10136000E66AB1EF08F0ADD8E552E5521200E66E3C
:10137000E66A6EEF0AF0DECF10F0DDCF11F012005A
:10138000FADE21DF010EEE181200770EE66E200E57
:10139000E66E090EE66EA2D801011051111112007D
:1013A000FFDEDE6ADD6A1200F0DEE3EF08F0FCDE4D
:1013B000DFCFE6FF010EE66E0BDFDF2A010E120023
:1013C000EB51040DF3CFE9FFF4CFEAFFD20EE9268B
:1013D000000EEA221200CFDE15DF010EEE18120019
:1013E000CADEF1DEEE6AED6A1200DEDE0C0EE66E9B
:1013F000E66AEEDEDE6ADD6A1200E66E0C0EE66E6E
:101400006DD8020EE15C1200100EE66E270EE66E3D
:1014100026EC0FF0E552E5521200D9CFE6FFE1CFFE
:10142000D9FF1200B2DE02EF09F0F1DE010EF3186F
:101430001200A1DE0CEF09F0DECFE9FFDDCFEAFFFD
:101440001200105C000E115812005EEC01F0DFDE9D
:10145000F3500001B6191200D890E936EA36B3DE2F
:1014600040EF09F092DED8DE21EF09F084DECADE1B
:10147000EE6AED6A1200880EE66E130EE66E0EEF4F
:101480000FF076DCC4DEF350F4101200E66E79EC57
:101490000CF0E552E552E55212000DEC01F0E55278
:1014A000E55200091200126F136B0001BC6FBD6B97
:1014B0001200E552E7CFD9FF1200D890E936EA369C
:1014C0001200C40EE66E090EE66E3EEF0FF046DF28
:1014D000080EE66E200E4BDFAAEF09F0010EE66E55
:0414E000B1EF08F070
:0C14E400A6DBDECF10F0DDCF11F0FE0E15
:1014F000DB50000111AE02D0D89003D0105C000E7A
:10150000115813E220DBE7DA04E6010E105C000E4E
:10151000115806E2020EDB2A030EF5E3DB2AF3D7AD
:10152000DF2A010EE0E3DB2ADED7040EE15C02E2F3
:10153000E16AE552E16E6BD27CDBDECF10F0DDCFED
:1015400011F0126A136A11AE02D012681368D950F2
:10155000FB0F32DBEE50105CEE501158EE5012587B
:10156000EE50135813E2EFDAB6DA04E6A00E105C80
:10157000000E115806E2020EDB2A030EF5E3DB2A09
:10158000F3D7DF2A010ED9E3DB2AD7D7040EE15CBB
:1015900002E2E16AE552E16E3AD251DBF00BE8DAA1
:1015A000FE0EDB38F00B83121FDA31D258DB190E36
:1015B000D8DA0F0E8316F80E83160F0E8316300E30
:1015C000D7DA300ED5DA300ED3DA838A0DDA280E68
:1015D000E66EE3DFE5520C0EE66EDFDFE552E55224
:1015E00016D22DDB8312838611DB83960FDB0FD29D
:1015F00009DA839441DA0BD205DA83843DDA8394E5
:1016000006D200DAFE0EDBCFE6FFF6DFE552FFD1B1
:10161000F9D9FD0EDBCFF6FFFE0EDBCFF7FF08009A
:10162000F5500DE0FD0EDBCFF6FFDB2AFE0EDBCF23
:10163000F7FF01E3DB2A0800F550C3DAEAD7E7D168
:10164000E1D9050EE126010EF36EDB6E7CDA040EA5
:10165000DB6ADF6ADFCF10F0116A10BE116865DA4D
:1016600011501318E8AE02D0133404D01250105C9D
:10167000135011581FE2FD0EDBCF10F0FE0EDBCF32
:1016800011F0126A136A11AE02D012681368D950B1
:10169000010FE96EDACFEAFF10C00BF011C00CF0B9
:1016A00012C00DF013C00EF096DA56EC12F09CDA70
:1016B000DF2AD0D7010EDBCF10F0020EDBCF11F006
:1016C000030EDBCF12F0040EDBCF13F010C006F0D8
:1016D00011C007F012C008F013C009F0050EE15C5C
:1016E00002E2E16AE552E16E92D18CD9020EE12666
:1016F000DF6AFB0EDBCF10F0FC0EDBCF11F0FD0E2E
:10170000DBCF12F0FE0EDBCF13F0105011101210D1
:10171000131003E1300E55DA36D0D950FB0FE4D95F
:1017200001E6E8D905E22D0E4CDAD950FB0FB6D907
:10173000DE520A0EDD6E00DAE8AE02D0103403D0BD
:10174000E750D88010541FE2E7D914BE156853D96A
:10175000FFD913DAD8D90BE0010EDF6EDB04186E67
:10176000196A18BE196860D908DA79D903D0DF5030
:1017700002E0300E26DAD0D914BE15683CD9D95013
:10178000FB0F49D9D8D7020EE15C02E2E16AE552CB
:10179000E16E3DD164DAFE0EDB50010A04E0010A7D
:1017A00004E1800E01D0C00EDF6EFD0EDB50DF24A1
:1017B000DF6EDFCFE6FF1CDFE552E55228D1010ED8
:1017C000E66E16DFE5522BEF0EF0E2D9D950F90F95
:1017D000F3D9EECFE6FFEECFE6FFEECFE6FFEFCF99
:1017E000E6FF83DF3FDA13D1D3D9FB0EDBCFE6FF71
:1017F000FC0EDBCFE6FF0CDFE552E55208D102D943
:10180000FBC010F0FCC011F0040ED8901036113659
:10181000E806FBE154D9FE0EDBCFEFFFFD2B000EF7
:10182000FE23FE350FE2FD510F08000EFE550AE2C1
:10183000FB51FC1103E1010EFB6F01D0FB6BFC6B54
:10184000FD6BFE6BE4D00BDADF6ADFCF10F0100E19
:10185000E76E1018E8AE02D0E73402D0E750105C13
:1018600018E2DFCFE9FFEA6AE9BEEA685B0EE92623
:101870000F0EEA22200EEF6EDFCFE9FFEA6AE9BE23
:10188000EA686B0EE9260F0EEA22200EEF6EDF2AC1
:10189000DCD7E552BCD0E3D9DED9DF6A100EDF5CBD
:1018A00002E2B9D9FBD7D1D9100EDF5C02E2BAD976
:1018B000FBD7E552ACD0D3D90F015A51010A0DE044
:1018C000010A14E1C8D9DF6A100EDF5C02E2A3D975
:1018D000FBD70F01010E5A6F0AD0B7D9100EDF5C8B
:1018E00002E2A0D9FBD70F015A6B01D05A6BE55227
:1018F0008ED088D8A8D8FBC010F0FCC011F0040E20
:10190000D89010361136E806FBE1D9D8FC0EDBCFB3
:10191000EFFF7DD077D8020EE126DF6A94D8F90E6A
:10192000DBCF10F0FA0EDBCF11F0FFD81050111002
:101930001210131003E1300EF4D836D0D950F90F3D
:10194000D3D801E6D7D805E22D0EEBD8D950F90F40
:10195000A5D8DE520A0EDD6EEFD8E8AE02D0103404
:1019600003D0E750D88010541FE2D6D814BE1568B3
:1019700042D8EED816D9C7D80BE0010EDF6EDB04D3
:10198000186E196A18BE19684FD80BD968D803D0D9
:10199000DF5002E0300EC5D8BFD814BE15682BD872
:1019A000D950F90F38D8D8D7020EE15C02E2E16ACB
:1019B000E552E16E2CD026D846D8FB0EDBCFF6FFE1
:1019C000FC0EDBCFF7FF0800F5500DE0FB0EDBCF80
:1019D000F6FFDB2AFC0EDBCFF7FF01E3DB2A080072
:1019E000F5509FD8EAD713D08386010EBAD88396D4
:1019F000010EB1EF0DF014C0E6FF15C0E6FFE5D80B
:101A0000FDEF0DF0D9CFE6FFE1CFD9FF1200E5528F
:101A1000E7CFD9FF1200D0D89BD8DDD88EEC12F0DA
:101A2000E3D8010EDB06120018C0E6FF19C0E6FF7E
:101A3000CCD806C014F007C015F008C016F009C0D5
:101A400017F0A8EF0DF0FE0EDB50010B0001FB6F4D
:101A5000FC6BFD0EDB500F0BFD6FFE6B1200DBCF3E
:101A600009F08EEC12F0C9D8300E1026000E1122AB
:101A70001222132210501200C9D8FE0EDBCFE6FF4F
:101A8000B0DDE552FE0EDB38F00BE66EAADDE55266
:101A90001200EA22EF5095D8DF2A12008DD8000EEE
:101AA000EE6CEF1EEE22EF1EEE22EF1EEF22ED5245
:101AB000ED52ED5212006EDEE552E55212005B0E61
:101AC00010260F0E112210500001FD25E96E115055
:101AD000FE21EA6E1200020EDBCF10F0030EDBCF08
:101AE00011F0D8901150120067D8D890030EEB5027
:101AF000000A1200000EEE5C000EEE58000EEE58CA
:101B0000000EEE581200DBCF09F08EEC12F00650FA
:101B10000710081009101200010EDB04146E156A7C
:101B20001200E66E6CDEE5521200FB0EDBCF12F007
:101B3000FC0EDBCF13F01200010EDBCF10F0000E15
:101B4000E76E10181200020EDB6A030EDB6A120049
:101B500006C00BF007C00CF008C00DF009C00EF075
:101B60001200E66EE66AE66AE66AE6DC32EF0EF03E
:101B700083123ADF0F0E83161200FB0EDBCF06F046
:101B8000FC0EDBCF07F0FD0EDBCF08F0FE0E1200DF
:101B900039DFFD0EDBCFE6FFFE0EDBCFE6FF5BEFAE
:101BA0000DF0F90EDBCF06F0FA0EDBCF07F0FB0EDF
:101BB000DBCF08F0FC0E1200E96EFF0EDA20EA6EB1
:101BC0001200E66E1EDDE55212000A0EE66EE66AAF
:101BD00037DD32EF0EF0EECF06F0EECF07F0EECFAE
:101BE00008F0EFCF09F0120005C0EDFF04C0EDFFD3
:101BF00003C0EDFF02C0EFFF120006C010F007C0E7
:101C000011F008C012F009C013F01200010EE66EC8
:101C100069DCE5521200DF50EA6A5B0FE96E0F0ED5
:101C200049EF0DF0DF50EA6A6B0FE96E0F0E49EFD6
:101C30000DF0E8DE040EE126DE6ADD6A1200E2DE67
:101C40000F0E8316FE0EDB501200E66A010EE66EE2
:101C500032DFDF6A1200E66AE66A5BEF0DF0D2DE81
:0E1C6000E6521200E552E552E552E55212003E
:021C6E0034D967
:101C7000D59EFD0EDBCF30FFFE0EDBCF31FFD59CB6
:101C800048D9D59AD586F28AF294F184D58E29D195
:101C9000D59E12003ED9D58E12001ED9CD90FD0ED4
:101CA000DBCF32FFFE0EDBCF33FF3AD99D809E9013
:101CB0009F90CD8ECD8CCD98CD9ACD96CD92CD8066
:101CC00010D12ED9CD801200CD90120005D9CA9422
:101CD000CC6AFE0EDB500F01346F356BCB6E9D82EC
:101CE0009E929F92CA90CA92CA84FBD034CFCBFFF7
:101CF000CA841200CA941200EFD8B190FD0EDBCF57
:101D000036FFFE0EDBCF37FF12D90750B36E0FD967
:101D1000F8D8B26EA082A192A292B18EB198B19A77
:101D2000B192B180DED003D90350B26E00D9E1D8B0
:101D3000B36EB1801200B19012000F01422B000E61
:101D400043234E51425D4F51435904E3426B436B71
:101D5000010E386F12000F01442B000E4523505125
:101D6000445D5151455904E3446B456B010E396F95
:101D700012000F01462B000E47235251465D53516E
:101D8000475904E3466B476B010E3A6F12000F018F
:101D9000482B000E49234A2B4B234C2B4D235451E7
:101DA000485D5551495904E3486B496B010E3B6F3F
:101DB00056514A5D57514B5904E34A6B4B6B010E28
:101DC0003C6F58514C5D59514D5904E34C6B4D6B70
:101DD000010E3D6F1200B2D8DBCF4EFFFE0EDBCFFF
:101DE0004FFF0F01426B436B386B7BD0A7D8DBCF23
:101DF00050FFFE0EDBCF51FF050E0D6E0E6A50CF69
:101E000008F051CF09F0B4EC11F008C050FF09C040
:101E100051FF0F01446B456B396B63D08FD8DBCF1B
:101E200054FFFE0EDBCF55FF0A0E0D6E0E6A54CF27
:101E300008F055CF09F0B4EC11F008C054FF09C008
:101E400055FF0F01486B496B3B6B4BD077D8DBCF0D
:101E500056FFFE0EDBCF57FF0A0E0D6E0E6A56CFF1
:101E600008F057CF09F0B4EC11F008C056FF09C0D4
:101E700057FF0F014A6B4B6B3C6B33D05FD8DBCF06
:101E800058FFFE0EDBCF59FF0A0E0D6E0E6A58CFBB
:101E900008F059CF09F0B4EC11F008C058FF09C0A0
:101EA00059FF0F014C6B4D6B3D6B1BD0186A1650E0
:101EB000135C106E17501458116E18501558126E8E
:101EC0000C6A010E0D6E0E6A10C007F011C008F00A
:101ED00012C009F0DAEF11F0D9CFE6FFE1CFD9FF58
:101EE0001200E552E7CFD9FF120013681468156A93
:101EF000120007C010F008C011F009C012F007501E
:101F0000120003C010F004C011F005C012F003501D
:101F1000120017D80350D66E14D8EBDFD76E12001C
:101F200017D80750CF6E14D8ECDFCE6E1200DDDF6D
:101F300036CF16F037CF17F056EF0FF0CDDFFD0E8E
:101F40001200D3DF30CF16F031CF17F056EF0FF07D
:0E1F5000CCDF32CF16F033CF17F056EF0FF084
:021F5E005041F0
:101F60005353574F52442057524F4E472020004260
:101F7000414F2054524920202020202020202000A2
:101F80005448414E47204D41592044414E4720205E
:101F9000005052455353202A20544F205455524E3E
:101FA000200053544154453A2042414F2054524955
:101FB00020200053544154453A2046494E452020A4
:101FC00020202000594F55522050415353574F5213
:101FD0004420495300524547495354455220332E1B
:101FE000454C455641004F5054533A20312E4552EE
:101FF000524F5220322E00594F5520415245204118
:10200000444D494E202020005052455353202A2051
:10201000544F20555345202000594F552043414EE1
:1020200020454E544552202020002A00454E54455C
:10203000522050415353574F524420200050524594
:102040005353202A20464F52205041535300313AD7
:102050002055502C20323A20444F574E00464C4FCA
:102060004F523A2000494E534944452C20204346C4
:102070003A004E4F54480043533A0043463A20003A
:10208000434C4F53494E4720444F4F52212121206A
:1020900020202020004F50454E494E4720444F4FAE
:1020A000522121212020202020004355525F466CE0
:1020B0006F6F723A2020202020004E4F5448494E26
:1020C0004700444F574E0055500053544154453A31
:1020D00020202020202020005354415254494E47B4
:0420E0002121210099
:0C20E400F28ED08EF28C1200F19CF29271
:1020F000F2881200D8CFE4FFE0CFE4FFE46E62D8AC
:1021000000EE00F0100EE80403E3EECFE4FFFBD78F
:1021100000EE10F00A0EE80403E3EECFE4FFFBD775
:10212000E652F2B477D89EB07CD8A1B281D8F2B290
:10213000F2929EBA9E9AE55200EE19F00A0EE80459
:1021400003E3E5CFEDFFFBD700EE0FF0100EE80440
:1021500003E3E5CFEDFFFBD74AD8E550E5CFE0FF3D
:10216000E5CFD8FF10002ED800EE00F0100EE804E6
:1021700003E3EECFE4FFFBD700EE10F00A0EE80415
:1021800003E3EECFE4FFFBD7E652F2B443D89EB0B0
:1021900048D8A1B24DD8F2B2F2929EBA9E9AE552B8
:1021A00000EE19F00A0EE80403E3E5CFEDFFFBD7DC
:1021B00000EE0FF0100EE80403E3E5CFEDFFFBD7D0
:1021C00016D81100DACFE4FFE2CFDAFFE9CFE4FF5F
:1021D000EACFE4FFF6CFE4FFF7CFE4FFF5CFE4FF6B
:1021E000F3CFE4FFF4CFE4FFFACFE4FF1200E5CF32
:1021F000FAFFE5CFF4FFE5CFF3FFE5CFF5FFE5CF3D
:10220000F7FFE5CFF6FFE5CFEAFFE5CFE9FFE5CF42
:10221000DAFF120048EC0EF0F2944AEC0EF09DEF5B
:102220000EF064EC0EF09E9061EC0EF0ABEF0EF051
:0E2230009BEC0EF0A19293EC0EF0C7EF0EF0B7
:02223E000F0E81
:10224000946E82681200D9CFE6FFE1CFD9FF040E69
:10225000E126DE6ADD6ADECF10F0DDCF11F0D89026
:10226000115004E6040E105C000E115857E2DECF48
:10227000E9FFDDCFEAFF200EE9260F0EEA22EF1C70
:10228000826E020EDB6A030EDB6A020EDBCF10F0F9
:10229000030EDBCF11F0D890115004E6040E105C51
:1022A000000E115836E2020EDBCFE9FF030EDBCF42
:1022B000EAFF240EE9260F0EEA22EF50821420E1F5
:1022C000DECF14F0DDCF15F0D89014361536D89047
:1022D00014361536020EDB501424E96E030EDB5063
:1022E000152039D8EECF12F0EFCF13F0010E1226E1
:1022F000000E13221DD812C0EEFF13C0EDFF03D055
:1023000017D8EE6AED6A020EDB2A030EBEE3DB2A63
:10231000BCD7DF2A010E9FE3DB2A9DD7040EE15CC8
:1023200002E2E16AE552E16EE552E7CFD9FF120021
:10233000DECF10F0DDCF11F0D89010361136D890E6
:1023400010361136020EDB501024E96E030EDB50FE
:102350001120ABEF11F0EA6ED890E936EA36000EA4
:08236000E9260F0EEA2212002B
:08236800006A0EAEBDEF11F09A
:102370000D6C0E1EE86A0E22001E09AEC5EF11F0AC
:10238000086C091EE86A0922001ECFEC12F009BE93
:10239000D5EF11F000AE000C086C091EE86A0922A6
:1023A000046C051EE86A0522000C00BECCEF11F09B
:1023B0000188FF0C006A0EAEE5EF11F00C6C0D1EEB
:1023C0000E1EE86A0D220E22001E09AEEFEF11F07C
:1023D000076C081E091EE86A08220922001EB2ECDA
:1023E00012F009BE02EF12F000AE000C076C081EDE
:1023F000091EE86A08220922036C041E051E042235
:0E2400000522000C00BEF6EF11F00188FF0C63
:02240E001E0EA0
:10241000F66E000EF76E000EF86E00010900F55022
:10242000F66F0900F550F76F03E1F66701D03DD074
:102430000900F550F16F0900F550F26F0900F550F1
:10244000F36F09000900F550E96E0900F550EA6ED6
:10245000090009000900F550F46F0900F550F56F07
:1024600009000900F6CFF8F0F7CFF9F0F8CFFAF04D
:10247000F1C0F6FFF2C0F7FFF3C0F8FF0001F4531C
:1024800002E1F55307E00900F550EE6EF407F8E2BB
:10249000F507F9D7F8C0F6FFF9C0F7FFFAC0F8FF63
:0C24A0000001F607000EF75BBFD712002A
:0424AC0006500B02C9
:1024B000F3CF02F0F4CF03F00C02F3500326000E2A
:1024C000F420046E06500D02F3500426000EF42092
:1024D000056E06500E02F350052607500B02F3500E
:1024E0000326F4500422000E052207500C02F3507C
:1024F0000426F450052207500D02F350052608501B
:102500000B02F3500426F450052208500C02F3503D
:0C251000052609500B02F35005261200AE
:04251C00056A046ADE
:10252000036A026A200EE76ED89006360736083630
:10253000093602360336043605360B50025C0C5061
:1025400003580D5004580E50055809E30B50025E15
:102550000C50035A0D50045A0E50055A062AE72E05
:04256000E4D71200AA
:0C256400056A046A036A180EE76ED8903E
:102570000736083609360336043605360C50035C38
:102580000D5004580E50055807E30C50035E0D50D3
:0E259000045A0E50055A072AE72EEAD7120009
:02259E00056ACC
:1025A000046A100EE76ED8900836093604360536F0
:1025B0000D50045C0E50055805E30D50045E0E509E
:0A25C000055A082AE72EF0D7120092
:0625CA00800EF36E00EE2E
:1025D00000F00F0E01D81200EA6002D0EE6AFCD7BC
:0A25E000F350E9601200EE6AFCD728
:0625EA001EEE00F02EEED3
:1025F00000F0F86A019C07EC12F003EC00F02EECFE
:0626000000F0FBD7120000
:0A26060000000000000000000000CA
:1026100000000000000000000000000000000000BA
:1026200000000000010001000100010001000100A4
:10263000000000000000000000000000000000009A
:10264000000000000000000000000000000000008A
:10265000000000000000000000000000000000007A
:102660000000000000000000000000000000630007
:102670006B003132334134353642373839432A30F2
:1026800023443132334134353642373839432A30E6
:102690002344414243446E0000000000000000005B
:0126A0000039
:0F26A1000020202020202020202020202020206A
:1026B000202020202020202020202020202020201A
:0226C0002020D8
:0E26C20000000000000000000000000000000A
:1026D00000000000000000000000000000000000FA
:1026E00000001020408001020408010204081020AC
:0226F000408028
:020000040030CA
:0100010002FC
:0100020003FA
:010003001EDE
:010005008179
:010006008178
:010008000FE8
:01000900C036
:01000A000FE6
:01000B00E014
:01000C000FE4
:01000D0040B2
:00000001FF
